:040000006F00004944
:100004000000000000000000480200004A02000056
:10001400000000008E04000000000000000000004A
:100024008E0400008E0400000000000000000000A8
:100034008E040000000000008E0400000000000098
:100044008E0400008E0400008E0400008E04000064
:100054008E0400008E0400008E0400008E04000054
:100064008E0400008E0400008E0400008E04000044
:100074008E0400008E0400008E0400008E04000034
:100084008E0400008E040000A40A00008E04000008
:100094008E0400008E0400008E0400008E04000014
:1000A4008E0400008E0400008E0400008E04000004
:1000B4008E0400008E0400008E0400008E040000F4
:1000C4008E0400008E0400008E0400008E040000E4
:1000D4008E0400008E0400008E0400008E040000D4
:1000E4008E0400008E0400008E0400008E040000C4
:1000F4008E0400008E0400008E0400000000000046
:10010400000000008E0400008E0400008E04000035
:100114008E0400008E0400000000000000000000B7
:1001240000000000000000000000000000000000CB
:0C013400000000000000000000000000BF
:10014000397101436EC619A0397141536AC866CA34
:1001500062CC5ECE19A0397101535AD056D252D416
:100160004ED64AD826DA22DC06DE3301614082828E
:1001700041114AC026C222C406C68282B24D410144
:10018000024D924C224CB24B4101024B924A224A00
:10019000B2494101024992442244B2404101828065
:1001A0003D432A876373C3029377F700BDEFADE544
:1001B000937606FF3D8ABA960CC34CC30CC74CC756
:1001C0004107E36BD7FE11E28280B306C3408A0683
:1001D0009702000096966780A6002307B700A30643
:1001E000B7002306B700A305B7002305B700A30493
:1001F000B7002304B700A303B7002303B700A3028B
:10020000B7002302B700A301B7002301B700A30082
:10021000B7002300B700828093F5F50F9396850011
:10022000D58D93960501D58D61B7939627009702DA
:10023000000096968682E78086FA9680C1171D8F09
:100240003E96E374C3F8A5B701A0B707EFBE37E742
:1002500000E0938707083CC701A0EFF27FF1054556
:10026000AD23A522EF00500B716513050520EF00AB
:10027000B01037250000130505DEEF00502CB7073E
:10028000002083A5070837250000130545DFEF0090
:10029000D019EF000076372401409D460546A94558
:1002A00013050440A52637250000130545E0EF009F
:1002B0001029130504408545352E37250000130508
:1002C000C5E1EF00D0273724000013052003EF001D
:1002D000500783D5C181130544E3EF001015F5B72E
:1002E000B71702409843B706FFF041111367170094
:1002F00098C3D84337060200758FD8C39843B70612
:10030000F7FEFD16758F98C39843B706FCFFFD16E0
:10031000758F98C3D843B70601FFFD16758FD8C3F4
:1003200037079F0098C702C402C69843C166558F1D
:1003300098C3B716024005679C42F18F3EC6A2479C
:1003400085073EC4B24781E7A247E397E7FEB717A8
:1003500002409C431397E7006357070685473EC654
:1003600032478547631FF704B7170240D843B706E3
:10037000C1FFFD16D8C3D843D8C3D843136707407D
:10038000D8C3D843758FD8C3D843B7062900558F33
:10039000D8C39843B7060001558F98C39843931666
:1003A0006700E3DD06FED843B7160240719BD8C351
:1003B000D84313672700D8C32147DC42B18BE39EA3
:1003C000E7FE4101828002C661BFEFF27FDA371794
:1003D00002405C43B70400209146B18B938404082B
:1003E000638BD702A146638DD702B7177A00938734
:1003F00007209CC0B7170240DC43918313F7F70036
:10040000B707002093870700BA9798239C40B3D77B
:10041000E7009CC041B3B757E80193870780D1BF7D
:1004200040435C43416749803D88F98F0904454753
:100430006313E400494481EFB747024083A7078074
:10044000C18BA9C3B7177A00938707200DA0B717F0
:100450000240DC433707C000F98F639EE700C126E6
:100460008547631AF500B727F400938707403304E4
:10047000F40280C041B7B7170240DC431397E7008E
:10048000E35207FCB7173D0093870790CDB701A053
:10049000970100209381013F17810020130181B64D
:1004A00017250000130505A497050020938585B541
:1004B0001386818163FAC5008322050023A05500BD
:1004C00011059105E3EAC5FE1385818193850183BA
:1004D0006377B500232005001105E36DB5FEFD42ED
:1004E000739002BC8D427390428093028008739097
:1004F000023097020000938222B193E2320073909F
:100500005230EFF0FFDD97020000938242D57390E6
:10051000123473002030EFF2BFC5B7270140938734
:100520000740631BF500854513050020D12C81454C
:1005300013050020F124B9B9B7370140938707802C
:10054000E31BF5FE8545130500405D2C8145130531
:100550000040CDB75C413707F1E01307F7EF944D4A
:100560007D8F9C41D58FD44DD58FD441A206D58F98
:10057000D98F5CC11C4537F7F1FF1307D77FD445EE
:100580007D8F9C49D58F94458606D58FD98F1CC504
:100590005C55370710FF7D177D8FDC29FD1793F71A
:1005A000F70FD207D98F5CD582801C4589C593E7A8
:1005B00017001CC58280F99BEDBF5C4193F5F50FD8
:1005C00001C6DD8D4CC1828093C5F5FFFD8DDDBF79
:1005D0001C4593E787001CC5828008450D8105896D
:1005E00082801C4593E747001CC58280084509812D
:1005F000058982801C4591C537075000D98F1CC5DD
:1006000082803707B0FF7D17F98FD5BFA54763F705
:10061000B7048D47138765FF3307F7020328C5002A
:100620009D47B397E70093C7F7FFB3F70701B3966A
:10063000E600DD8E54C5994763E3C70495477D16F0
:100640003306F6025859FD47B397C70093C7F7FF23
:10065000F98F3396C5005D8E50D982800D47338760
:10066000E502032805019D47B397E70093C7F7FF0D
:10067000B3F70701B396E600DD8E14C96DBFB1472D
:1006800063E2C702954765163306F6021859FD471F
:10069000B397C70093C7F7FFF98F3396C5005D8EF8
:1006A00010D9828095474D163306F6025855FD47FE
:1006B000B397C70093C7F7FFF98FB395C500DD8DDA
:1006C0004CD5828068454205418182805841144161
:1006D00093D78500F58F99C713F5F50F798D3335CD
:1006E000A000828001458280A18193C5F5FF0CC1E5
:1006F00082805C4191C537070004D98F5CC182803C
:10070000370700FC7D17F98FD5BF9C4513F707010C
:1007100013F8F70001C7D8413368E8008E2113F7BA
:10072000F50F39C318418146854E3D4F930F800226
:1007300093028004214E3396DE00B3F8C5006311A6
:1007400016039398260033131F011343F3FF3377E7
:10075000E300B318180133E7E800639FF70550C9B9
:100760008506E39AC6FD18C11307F00F6375B70439
:1007700054412146854E3D4F930F800293028004E1
:10078000414EB398CE0033F715016392E802131778
:10079000260001173313EF001343F3FFB376D300A2
:1007A0003317E800D98E639DF701232A150105064A
:1007B000E319C6FD54C18280E39457FA10C94DB7BE
:1007C000E39757FE23281501DDB723ACA180828073
:1007D000B7160240DC4251777D17F98F5D8DC8C294
:1007E000828099C5371702401C4F5D8D08CF8280EB
:1007F000B7170240984F1345F5FF798D88CF828057
:1008000099C5371702405C475D8D48C78280B7178E
:100810000240D8471345F5FF798DC8C78280371746
:1008200002405C4BB706020037B5AA55D58F5CCBAA
:10083000130555A5B757024023A0A70A83A7070AA7
:100840003385A740133515008280EFF27F9237176A
:1008500002405C439146AA84B18B6385D706A146CA
:100860006387D706B7177A00938707209CC037168F
:1008700002405C4237070020130707019183BD8BBC
:10088000BA9794239C40B3D7D700DCC05442A182CE
:100890009D8ABA969422B3D6D70094C45442AD82AE
:1008A0009D8A36971823B3D7E700DCC458423983B2
:1008B000937637001387418036971823B3D7E70222
:1008C0009CC8C9B8B757E8019387078045B740432C
:1008D0005C43416749803D88F98F090445476313AC
:1008E000E400494481EFB747024083A70780C18BEA
:1008F000A9C3B7177A00938707200DA0B717024046
:10090000DC433707C000F98F639EE700093F854746
:10091000631AF500B727F400938707403304F40205
:1009200080C0B1B7B7170240DC431397E700E3522A
:1009300007FCB7173D0093870790CDB7EFF25F83B1
:100940001629F577FD17F58FF621DA257971D58F00
:100950001EA95625FD779387379FF58FD6212A84C8
:100960002EC6D58F9625D58FB625D58F5EA55E2947
:10097000C207C18393F7F7CFD98F5EA96808F13515
:10098000B747014093870780B245631EF402A25720
:100990006547B387E7029841930640060A07B3D735
:1009A000E70233D7D702B3F7D7021207920793872C
:1009B0002703B3D7D702BD8BD98FC207C1831EA42B
:1009C00045616FF02FFD9257E1B791C55E2509672C
:1009D000D98F5EA582805A25F977FD17F98FD5BF8B
:1009E00093F5F51F4EA182800A216D8D3335A0004D
:1009F0008280EFF2EFF779718545414502C202C46A
:100A000002C6C53385444C0037150140648202C6D6
:100A1000ED391306000281450808EFF06FF88545AF
:100A2000130500207D3B2165372401405533130514
:100A30000440D53485473ECC0C08B7070E0013059B
:100A400004403ECE2302910202C802CA02D01936E7
:100A5000854513050440913E13050440953E9304DB
:100A6000044026859D3E75FD130504403724014052
:100A70008D3E930404402685953E75FD1305044084
:100A80008545853905469305002213050440353612
:100A9000B7E700E023810742114723A2E710456131
:100AA0006FF04FEF5D7122DE372401402ADC2EDA31
:100AB00013050440930500223ED286C696C49AC20E
:100AC0009EC032D836D63AD442D046CE72CC76CA00
:100AD0007AC87EC6E53E8547631CF50013050440D1
:100AE000D536239EA1809305002213050440ED3ED8
:100AF0007254B640A642164386436255D2554256BA
:100B0000B256225792570258F248624ED24E424F86
:100B1000B24F616173002030B707002083A7070838
:100B200037177A0013070720B3D7E70293F7F70FB9
:100B30002380F1821307803EB387E702239FF18071
:100B40008280B7F700E0D8438146799BD8C303D7AA
:100B5000E1813306A70290CBD4CB984313670701FA
:100B600098C398431367170298C3D843058B75DF62
:100B70009843799B98C38280EFF28FDF2A841165B6
:100B8000011185451105B139930700207C82371585
:100B900001408D473EC44C00E147130505803EC629
:100BA000AD3622C837440140B70708000C081305CA
:100BB00004803ECC02CA231E01004933854513053B
:100BC0000480213505616FF0EFDCEFF2CFD8B74438
:100BD0000140AE8932890144938404806345240135
:100BE0004A856FF08FDA930500042685F53B65DDB5
:100BF000B38789008385070026850504C205C18166
:100C0000C533E9BF138781801C43938601833E95DA
:100C1000636BD500B78600209386068063E5A60047
:100C200008C33E858280FD57EDBF39713EDA2ED272
:100C300032D436D63AD842DC46DE9387C18022CC05
:100C4000804326CA06CEAA8409C41C4C99E3228597
:100C5000ED290C4454102686228536C6EF0070120A
:100C6000F2406244D24421618280011126CA4AC8FE
:100C700006CE22CC4EC652C4AA842E8901C51C4D74
:100C800091E3E1219C4C804499E326857D299717C7
:100C900000009387671D631BF402C0405E24A18B94
:100CA000B1C71C48A1C7FD59294A1C448345090006
:100CB000FD17B1E91CC463DD07062286A945268518
:100CC0006120FD576308F502294535A097170000FC
:100CD0009387871B6314F4008044C9B797170000FB
:100CE00093878716E31CF4FAC0444DBFA28526857E
:100CF000112A55D97D55F2406244D2444249B24945
:100D0000224A056182801CC4050963D70700184C7C
:100D100063CAE700638845011C401387170018C0A9
:100D20008CA361B7228626850520E31035F9D9B753
:100D30001C401387170018C0294798A371B79387E1
:100D4000C180AA85884315B7011122CC26CA4AC89A
:100D500006CE4EC6AA842E89328401C51C4D91E36D
:100D6000ED2697170000938727106317F406C040FD
:100D70001C4C1CC45E24A18BC1C31C48B5CF1C48AD
:100D800008409379F90F1379F90F1D8D5C4863467C
:100D9000F500A2852685692C25E51C440505FD176F
:100DA0001CC41C401387170018C0238037015C48FF
:100DB0006388A7005E24858B81CBA9476316F90061
:100DC000A2852685B5240DEDF24062444A85D244C1
:100DD0004249B24905618280971700009387C70A8C
:100DE0006314F400804469B7971700009387C70520
:100DF000E310F4F8C044ADBFA2852685212041D17F
:100E00007D59D9B741119387C18026C2844322C43A
:100E10004AC006C62A892E8489C49C4C99E326853B
:100E20002D269717000093872704631BF402C04008
:100E30000317C40093170701C18393F68700ADEA37
:100E400093F6070195EEA5472320F90013670704E1
:100E50005AA47D55B2402244924402494101828005
:100E600097170000938747026314F4008044C9B7C2
:100E700097170000938747FDE31CF4FAC0444DBF69
:100E8000918B9DC34C5889C9930744046384F50032
:100E90004A853123232A04025E242322040093F787
:100EA000B7FD5EA41C481CC05E2493E787005EA4C7
:100EB0001C4899EB5E241307002093F707286385ED
:100EC000E700A2854A85A1215E2413F717001DC300
:100ED0005C4823240400B307F0401CCC1C480145A7
:100EE000B5FB8317C40013F707082DD793E7070452
:100EF0005EA485B7898B014791E3584818C4F9BFB0
:100F0000DE25011122CC26CA06CE4AC84EC613F7EA
:100F10008700AA842E8479EBD841634DE000B84164
:100F2000634AE0000145F2406244D2444249B2497A
:100F30000561828058547DD703A904009396370138
:100F400023A0040063DB060670485E24918B99C7DA
:100F50005C401D8E5C5899C33C401D8E5C540C5007
:100F6000814626858297FD575A24631DF5009440DB
:100F7000F54763E8D706B70740208507B3D7D70002
:100F8000858BA5C31C48232204001CC0931737017E
:100F900063D80700FD576314F5009C4091E368C8CF
:100FA0004C5823A02401BDDD930744046384F5005D
:100FB0002685F526232A0402B5B70C50014685463E
:100FC00026850297FD572A86E311F5F89C40B5DF88
:100FD00075476385E70059476393E70423A024011D
:100FE00091B7136707045AA47D5535BF83A905013E
:100FF000E38A09F203A905008D8B23A0350133098B
:101000003941014791E3D84918C4E35D20F11C54EC
:101010000C50CA864E86268582976347A0005E24C0
:1010200093E707045EA4C9B7AA993309A940F1BFA1
:101030009C49B9CF011122CC06CE2A8411C51C4D82
:1010400081E72EC61922B245971700009387C7E1A2
:10105000639BF5004C408397C50095C72285624489
:10106000F240056171BD971700009387E7E1639433
:10107000F5000C44CDB7971700009387E7DCE39C9D
:10108000F5FC4C44C9BFF2406244014505618280D1
:1010900001458280411122C406C62A844EA572A54C
:1010A0002320050023220500232405002322050612
:1010B00023280500232A0500232C0500214681450D
:1010C0001305C505EFF0CF8D97170000938747B143
:1010D0005CD097170000938767B31CD49717000064
:1010E000938747B75CD4971700009387A7B900D0C0
:1010F0001CD8B240224441018280970500009385AC
:1011000065F3A9A2411126C2130680069384F5FF58
:10111000B384C4024AC02E8922C406C693854407FC
:101120001D262A8401CD2320050023222501310517
:1011300008C4138684068145EFF08F862285B2406D
:10114000224492440249410182801C4DADE3411189
:1011500006C622C497070000938767FA1CD59387B9
:1011600001819C4323240504232605042328050428
:101170006314F50085471CCD2A841D2848C02285AC
:10118000052808C422852D2048C4484001469145C1
:10119000113708440546A545F53D48440946C9456B
:1011A000D53D85471CCCB2402244410182808280DB
:1011B00041119387018126C284434AC006C69C4CD4
:1011C00022C42A8999E3268549379384840480447C
:1011D000DC40FD1763D607009C40B9CF8440C5BFF3
:1011E0000317C40039E7C1778507232204062320AB
:1011F000040023220400232404005CC423280400E8
:10120000232A0400232C0400214681451305C4052C
:10121000EFE01FF9232A0402232C040223240404F0
:10122000232604042285B24022449244024941010B
:1012300082801304840671BF91454A85E13588C0D8
:1012400051FDB1472320F9000144E9BF797122D44F
:101250004AD052CC56CA5AC85EC606D626D24ECE00
:101260002A8AAE8A130485040149054BFD5B09EC0B
:10127000B25022544A8592540259F249624AD24AE3
:10128000424BB24B45618280044483294400FD19DE
:1012900063D409000040E1BFDE24637BFB00839739
:1012A000E40063877701A6855285829A3369A90095
:1012B00093848406E9BF1971A6DAAE848395E500AC
:1012C000A2DC86DE328463DB0500DE2423A0060078
:1012D00093F7070885E7930700401DA0300836C63E
:1012E000EF00D01FB246E34205FE7247BD67F98F9B
:1012F0007977BA9793B717009CC2F1BF93070004A0
:101300001CC0F6506654D654014509618280DE2522
:10131000011122CC06CE26CA4AC8898B2E8489CFD9
:10132000930774041CC01CC885475CC8F240624423
:10133000D24442490561828074003000AA84A53FEE
:10134000A2452A892685012219E98317C40013F7CB
:10135000072069FFF19B93E727005EA4D1B79707A9
:1013600000009387C7D99CD45E2408C008C893E7BF
:1013700007085EA4A2475CC8B24781CF8315E4008A
:101380002685EF00501811C55E24F19B93E71700E6
:101390005EA45E243369F9002316240141BFDDC138
:1013A00083A7C5FF411122C406C626C21384C5FF08
:1013B00063D307003E94AA84EF00B01B9387418259
:1013C0009C4381EF2322040023A281822244B24065
:1013D0002685924441016F00F019637EF4001440A9
:1013E0003307D4006396E7009843DC43369718C070
:1013F0005CC0D9BFBA87D84319C3E37DE4FE9443E8
:101400003386D700631F86001040B29694C333869C
:10141000D700E31DC7FA10435843B29694C3D8C30C
:1014200075B76375C400B1479CC04DB71040B30693
:10143000C4006316D70014435843B29614C058C072
:10144000C0C369B78280011126CA93843500F19820
:1014500006CE22CC4AC84EC6A104B14763F3F404B9
:10146000B14463E2B4042A89EF00B010938741824B
:1014700098433A8439E0938781829C4391E7814580
:101480004A85052F23A4A182A6854A851D27FD59DB
:1014900063193507B1472320F9004A85EF00900D05
:1014A00029A0E3D004FCB1471CC10145F2406244CD
:1014B000D2444249B249056182801C40858F63CF86
:1014C0000702AD4663F6F6001CC03E9404C031A08E
:1014D0005C406313870223A2F1824A85EF009009E2
:1014E0001305B4009307440061993307F5405DDFAD
:1014F0003A94898F1CC05DBF5CC3C5B7228740404A
:1015000095BF130435007198E30285FCB305A44030
:101510004A854525E31C35FBB5BF1C46FD171CC697
:1015200063DA0700184E63C5E700A9476394F50026
:101530006FF09F811C422E851387170018C28CA361
:101540008280011122CC26CA4AC84EC652C406CE99
:101550002A89AE893284B304D6007D5A631494007C
:10156000014501A80C204E864A85453F0504E31736
:1015700045FFF2406244D2444249B249224A0561E1
:101580008280357122CD26CB4AC94EC706CF52C5BF
:1015900056C35AC1DEDEE2DCE6DAAA89AE843289BD
:1015A000368401C51C4D91E34D3697170000938793
:1015B000A78B6397F40C83A44900DE24A18BFDC3A1
:1015C0009C48EDC393070002A304F10293070003B4
:1015D00002D22305F10222C6930B5002971A000093
:1015E000938A8A8C054C294B4A841C2099C3639E9C
:1015F000770DB30C2441638D0C00E6864A86A685E0
:101600004E858137FD57630FF51C9256E69636D20C
:101610001C206389071CFD571309140002C802CE61
:101620003ECA02CCA309010482D4834509001546B1
:101630005685252713041900C24751E913F70701FE
:1016400009C713070002A309E10413F7870009C7BC
:101650001307B002A309E104834609001307A0029F
:10166000638FE606F2474A84814625461820930593
:101670001400130707FD6377E60AB5CA3ECE85A8B6
:1016800097170000938747806395F40083A489002F
:101690002DB7970700009387277BE390F4F283A48C
:1016A000C90021BFA6854E85EFF0CFF501DD7D5540
:1016B000FA406A44DA444A49BA492A4A9A4A0A4BE1
:1016C000F65B665CD65C0D618280050439BF33052C
:1016D00055413315AC00C98F3EC82289B9B732478E
:1016E00093064700184336C6634707023ACE1820D0
:1016F0009307E002631DF70418309307A002631BF1
:10170000F702B2470904138747009C433AC663C1F6
:1017100007023ECA2DA83307E04093E727003ACEE0
:101720003EC8F1B7B387670385462E84BA973DBF9D
:10173000FD57C5B7050402CA8146814725461820D2
:1017400093051400130707FD6374E606F9F20C20F5
:101750000D46170500001305A575012511CD970746
:1017600000009387E7741D8D93070004B397A700CB
:10177000424505045D8D2AC80C2019461705000056
:1017800013054573130914002304B102F92335C16D
:1017900097F7FFFF9387078795E74247B24713778D
:1017A000071009CF91073EC69257D2973ED22DBD62
:1017B000B387670385462E84BA9751B79D07E19B8F
:1017C000A107D5B77800970600009386C6D726866E
:1017D0000C084E8597000000E7000000FD572A8A9C
:1017E000E314F5FCDE2493F70704E39207EC1255AB
:1017F000C1B57800970600009386E6D426860C08CB
:101800004E85012AE1BF797156CA9C49BA8A98452A
:1018100022D426D24ECE52CC06D64AD05AC85EC664
:10182000AA892E84B284368A63D3E700BA879CC023
:101830000347340419C385079CC01C4093F7070273
:1018400081C79C4089079CC0032904001379690063
:10185000631A0900130B9401FD5B5C449840998F57
:10186000634CF9041C408346340493F70702B336F3
:10187000D000A5EB13063404D2854E85829AFD571D
:101880006303F5041C4011469840998B54448144ED
:101890006397C700B384E64063D3040081441C44CB
:1018A00018486354F700998FBE94014969047D5B21
:1018B00063982405014509A885465A86D2854E8538
:1018C000829A631E75017D55B2502254925402597A
:1018D000F249624AD24A424BB24B456182800509C5
:1018E000ADBF3307D40013060003A301C7040347A9
:1018F000540493871600A2978906A381E7049DBF2D
:1019000085462286D2854E85829AE30E65FB0509BF
:1019100045B7797122D426D24AD04ECE06D652CCC3
:1019200056CA5AC8B689942D930790063289AA845C
:101930002E8413863504638DF60263E2D70693077F
:1019400080056385F61863EDD700638D0620930745
:101950003004638EF60A930A24042301D404C9A038
:10196000930730066385F60A93074006E395F6FE73
:101970001C40084393F6070893054500C5C61C4163
:101980000CC363D807001307D002B307F040A301CC
:10199000E4049706000093866652294765A89307DA
:1019A00000076381F61663E5D7029307E0066388B4
:1019B000F6189307F006E390F6FA0C401C4313F870
:1019C0000508138547006307080608C39C4385A8DC
:1019D00093075007E383F6FE930780076388F612A8
:1019E00093073007E399F6F61C43D041814593866F
:1019F000470014C383AA07005685852601C5330511
:101A0000554148C05C401CC8A301040461A81C43A4
:101A1000930A2404938647009C4314C32301F404CF
:101A20008547D5B793F607041C410CC3B9DAC20742
:101A3000C18781BF93F5050408C3C9D99E23130745
:101A4000F0066386E60E9706000093862647294730
:101A5000A30104044C400CC463C5050008406D9903
:101A600008C099E3B28A89CDB28AB3F5E702FD1ABC
:101A7000B6958C212380BA00B3D5E70263FFE70A4D
:101A8000A147631EF7001C40858B91CB58401C4832
:101A900063C7E70093070003A38FFAFEFD1A33061E
:101AA000564110C84E87CA867000A2852685A13B84
:101AB0007D5A631D450B7D55B250225492540259F4
:101AC000F249624AD24A424B45618280A382D504E0
:101AD000970600009386863E0C40084313F80508DD
:101AE0001C411105630D080208C313F7150001C757
:101AF00093E505020CC04147A1FF0C4093F5F5FDAD
:101B00000CC0B9B79C4193E707029CC193078007BB
:101B1000A302F404970600009386863B75BF13F872
:101B2000050408C3E30308FCC207C1837DBF970611
:101B300000009386A638214721BFAE873DB7944168
:101B40001C43CC4913F806081385470063060800B8
:101B500008C39C438CC339A008C393F606049C4376
:101B6000F5DA8EA323280400B28A2DBF14485686C6
:101B7000CA8526858299E30045F51C40898B8DE74F
:101B8000B2474844E35AF5F23E853DB7854656864E
:101B9000CA8526858299E30065F3050A5C443247CD
:101BA000998FE345FAFEE9BF014A930A94017D5BF0
:101BB000F5B7411122C42A842E8523A6018206C6C8
:101BC000EFF04F84FD576317F5009387C1829C4364
:101BD00091C31CC0B240224441018280411122C401
:101BE0002E848395E50006C67922634905007C486A
:101BF000AA977CC8B2402244410182805E247D774E
:101C00007D17F98F5EA4FDB7DE25011122CC26CA0F
:101C10004AC84EC606CE93F70710AA842E8432898E
:101C2000B68991C78395E5008946014609225E245D
:101C30007D777D17F98F5EA48315E4006244F2403E
:101C4000CE864A86B24942492685D244056125A8F6
:101C5000411122C42E848395E50006C6C928FD578C
:101C60005A24631AF500FD77FD17F98F5EA4B24080
:101C70002244410182808567D98F5EA468C8C5BFB0
:101C80008395E50005A8411122C42A842E85B285DA
:101C9000368623A6018206C6EFE03FF3FD576317A1
:101CA000F5009387C1829C4391C31CC0B24022447B
:101CB00041018280411122C42A842E8523A60182FB
:101CC00006C6C520FD576317F5009387C1829C4364
:101CD00091C31CC0B240224441018280411122C400
:101CE0002A842E85B28523A6018206C6C920FD5707
:101CF0006317F5009387C1829C4391C31CC0B24017
:101D0000224441018280411122C42A842E8523A6C7
:101D1000018206C65D20FD576317F5009387C182D7
:101D20009C4391C31CC0B2402244410182804111B6
:101D300022C42A842E85B285368623A6018206C651
:101D40005920FD576317F5009387C1829C4391C3C7
:101D50001CC0B24022444101828093F5F50F2A96BF
:101D60006314C500014582801C21E38EB7FE050582
:101D7000C5BF82808280411122C42A842E85B2850B
:101D8000368623A6018206C6A920FD576317F500F3
:101D90009387C1829C4391C31CC0B240224441013D
:101DA00082809307800523A6F1827D558280930768
:101DB000800523A6F1827D5582809307800523A6A6
:101DC000F182014582809307800523A6F1827D552B
:101DD00082809307800523A6F1827D5582800000D2
:101DE0003D3D3D20CFB5CDB3C6F4B6AF203D3D3D22
:101DF0000D00000053797374656D436C6B3A256474
:101E00000D0A000032202D20414443CDA8B5C0C5A5
:101E1000E4D6C3CDEAB3C90D0000000033202D2065
:101E2000C8EDBCFEB4A5B7A2C5E4D6C3CDEAB3C91C
:101E30000D0000006164635F64617461203D2025D2
:101E4000640D0A0000000000000000000000000017
:101E50000000000000000000000000000000000082
:101E60000000000000000000000000000000000072
:101E70000000000000000000000000000000000062
:101E80000000000000000000000000000000000052
:101E90000000000000000000000000000000000042
:101EA00000000000232D302B20000000686C4C0047
:101EB0006566674546470000303132333435363782
:101EC0003839414243444546000000003031323346
:101ED0003435363738396162636465660000000066
:101EE00000000000000000000102030406070809CA
:101EF00000000000010203040102030406070809B0
:101F000000000000641E0000841E0000441E00004B
:101F100000000000000000000000000000000000C1
:101F200000000000000000000000000000000000B1
:101F300000000000000000000000000000000000A1
:101F40000000000000000000000000000000000091
:101F50000000000000000000000000000000000081
:101F600000D8B80502040608B000002020000020B8
:081F7000200000200000000029
:00000001FF
