:040000006F00203D30
:100004000000000000000000080200000A020000D6
:1000140000000000D0030000000000000000000009
:10002400D0030000D0030000000000000000000026
:10003400D003000000000000D00300000000000016
:10004400D0030000D0030000D0030000D003000060
:10005400D0030000D0030000D0030000D003000050
:10006400D0030000D0030000D0030000D003000040
:10007400D0030000D0030000D0030000D003000030
:10008400D0030000D0030000D0030000D003000020
:10009400D0030000D0030000D0030000D003000010
:1000A400D0030000D0030000D0030000D003000000
:1000B400D0030000D0030000D0030000D0030000F0
:1000C400D0030000D0030000D0030000D0030000E0
:1000D400D0030000D0030000D0030000D0030000D0
:1000E400D0030000D0030000D0030000D0030000C0
:0C00F400D0030000D0030000D003000087
:10010000397101436EC619A0397141536AC866CA74
:1001100062CC5ECE19A0397101535AD056D252D456
:100120004ED64AD826DA22DC06DE330161408282CE
:1001300041114AC026C222C406C68282B24D410184
:10014000024D924C224CB24B4101024B924A224A40
:10015000B2494101024992442244B24041018280A5
:100160003D432A876373C3029377F700BDEFADE584
:10017000937606FF3D8ABA960CC34CC30CC74CC796
:100180004107E36BD7FE11E28280B306C3408A06C3
:100190009702000096966780A6002307B700A30683
:1001A000B7002306B700A305B7002305B700A304D3
:1001B000B7002304B700A303B7002303B700A302CB
:1001C000B7002302B700A301B7002301B700A300C3
:1001D000B7002300B700828093F5F50F9396850052
:1001E000D58D93960501D58D61B79396270097021B
:1001F000000096968682E78086FA9680C1171D8F4A
:100200003E96E374C3F8A5B701A0B707EFBE37E782
:1002100000E0938707083CC701A0EFF27FF10522B9
:10022000EF005034716513050520EF00B039B707B2
:10023000002083A50708374500001305C5BBEF2044
:10024000F00905459D2D41657D15EF00D00FEF00AC
:10025000101401A0B71702409843B706FFF04111F0
:100260001367170098C3D84337060200758FD8C3A9
:100270009843B706F7FEFD16758F98C39843B706E7
:10028000FCFFFD16758F98C3D843B70601FFFD1616
:10029000758FD8C337079F0098C702C402C698431A
:1002A000C166558F98C3B716024005679C42F18F0F
:1002B0003EC6A24785073EC4B24781E7A247E397FF
:1002C000E7FEB71702409C431397E7006357070602
:1002D00085473EC632478547631FF704B71702407C
:1002E000D843B706C1FFFD16D8C3D843D8C3D843F7
:1002F00013670740D8C3D843758FD8C3D843B70610
:100300003D00558FD8C39843B7060001558F98C359
:10031000984393166700E3DD06FED843B716024004
:10032000719BD8C3D84313672700D8C32147DC4249
:10033000B18BE39EE7FE4101828002C661BFB71622
:100340000240DC42370700201146B18B1307070833
:100350006385C70021466388C702B7177A00938771
:1003600007201CC3B7170240DC43918393F6F700C4
:10037000B707002093870700B69794231C43B3D791
:10038000D7001CC38280DC42D4424166C983BD8B46
:10039000F18E890745466393C700C94781EEB7468A
:1003A000024083A60680C18A89CEB7167A0093865A
:1003B000062021A8B7160240D4421396E600E35661
:1003C00006FEB7163D0093860690B387D70251BF4D
:1003D00001A0970100209381E14A175100201301E9
:1003E00061C217450000130525A9970500209385D4
:1003F00065C11386818163FAC5008322050023A0AD
:10040000550011059105E3EAC5FE138581819385A9
:1004100041836377B500232005001105E36DB5FE28
:10042000FD42739002BC8D4273904280930280081B
:100430007390023097020000938202BD93E2320073
:1004400073905230EFF01FE197020000938222DD9B
:1004500073901234730020309C4513F7070113F892
:10046000F70001C7D8413368E80037270240145B22
:100470003707000F758F4DEB8546238CD1803717DA
:1004800001406315E5009A2135839AA18E2113F767
:10049000F50F39C318418146854E3D4F930F8002B9
:1004A00093028004214E3396DE00B3F8C500631139
:1004B00016039398260033131F011343F3FF33777A
:1004C000E300B318180133E7E8006397F70750C952
:1004D0008506E39AC6FD18C11307F00F6375B704CC
:1004E00054412146854E3D4F930F80029302800474
:1004F000414EB398CE0033F715016392E80213170B
:10050000260001173313EF001343F3FFB376D30034
:100510003317E800D98E6395F703232A15010506E2
:10052000E319C6FD54C1828037170140E310E5F698
:1005300003C7818121DF81BFE39C57F810C949BF00
:10054000E39F57FC23281501D9BF371702405C43AE
:100550009146B18B6385D700A1466382D706B71752
:100560007A00938707201CC1371602405C42370788
:100570000020130707019183BD8BBA9794231C4178
:10058000B3D7D7005CC15442A1829D8ABA96942207
:10059000B3D6D70014C55442AD829D8A369718232E
:1005A000B3D7E7005CC55842398393763700138789
:1005B000418036971823B3D7E7021CC982805C4379
:1005C0005843C166C983BD8B758F8907C546639340
:1005D000D700C94701EF3747024003270780418B07
:1005E00009CF37177A001307072021A837170240D1
:1005F00058439316E700E3D606FE37173D0013076E
:100600000790B387E70285B799C5371702401C4F9B
:100610005D8D08CF8280B7170240984F1345F5FFD4
:10062000798D88CF82801A218D6793870704B62140
:100630007D8F9E21D58FD621D58FF621D58F9625FA
:10064000D58FB625D58FD625D58FF625D58FD98FC1
:100650001EA15A2DFD779387F77FF98F5EAD9E29F6
:100660001EA982801E2189C593E707041EA18280EE
:10067000C207C18393F7F7FBC207C183C5BF4EA56D
:1006800082800A256D8D3335A0008280EFF25FAA4B
:100690001629F577FD17F58FF621DA257971D58FB3
:1006A0001EA95625FD779387379FF58FD6212A847B
:1006B0002EC6D58F9625D58FB625D58F5EA55E29FA
:1006C000C207C18393F7F7CFD98F5EA96808B53DFC
:1006D000B747014093870780B245631DF402A257D4
:1006E0006547B387E7029841930640060A07B3D7E8
:1006F000E70233D7D702B3F7D702120792079387DF
:100700002703B3D7D702BD8BD98FC207C1831EA4DD
:10071000456189B49257E9B791C55E250967D98FBC
:100720005EA582805A25F977FD17F98FD5BF93F51D
:10073000F51F4EA182800A216D8D3335A000828085
:10074000EFF21F9FB71701402147D8CB094723AAD3
:10075000E780EF00005EFDBAEFF29F9DB717014002
:10076000214798CBEF00E05CF5B2EFF27F9C3714A5
:100770000140A1471CC88944232A94802A892181E9
:10078000EF00205B1375F90FEF00A05A13040480EB
:1007900004C8C9B2EFF2DF99411185454145AD3535
:1007A00085454145953585454145B93D85451145C9
:1007B000A13D41448D44C1474C00371501407C8226
:1007C00026C422C65139A1474C00371501407C820E
:1007D00026C422C6513191474C00371501407C8216
:1007E00026C422C695393715014089474C001305A8
:1007F00005807C8226C422C685314101A1BAEFF270
:100800009F91B74700002A8903A5C7BCAE84B28573
:10081000B289EF10303A2A8A1355B900EF10707779
:10082000D285EF10F00F2A8413D5B400EF10707644
:10083000CE85EF10F00EAA852285EF10E023EF1091
:10084000F06F1374F50F1375F901EF109074D285E2
:10085000EF10100DAA8A13F5F401EF109073CE85F6
:10086000EF10100CAA855685EF100021EF10106DC7
:100870001375F50F2E04498C135559001375F503A4
:10088000EF103071D285EF10B0092A8913D55400CA
:100890001375F503EF10F06FCE85EF107008AA8581
:1008A0004A85EF10601DEF1070691375F50F16057E
:1008B000418D420541816FF05F89EFF27F87AA8405
:1008C000F12EC93D37140140C1471CC809472328F0
:1008D000E480A1471CC811492328240113054006C0
:1008E000232824016D2113054006232A24014521D4
:1008F000130540062328240159299387C181C4A3E5
:1009000063940416370740011307C70A98C31305F9
:1009100060033D352685893545451D35130580071E
:10092000BD211305A003293D15453D351305200BB9
:10093000013D31451535314505350145313D13053D
:100940003003193D13053003013D1305700BCD3BFA
:100950001305500311351305B00BDD331305500398
:10096000E53B1305000CE93B1305C002F533130505
:10097000200CF9330545CD331305300CD1334D45EB
:10098000E13B1305400C6D3B13050002F1331305E9
:10099000600C7D333D45C9331305000D55331305F8
:1009A000400A5D3B1305100A453B1305600D493BAA
:1009B0001305100A55331305000E59331305000FA4
:1009C000613B0145513B1145413B11457133114597
:1009D00061331545513313059002BD3B13053003B8
:1009E000A53B1305E0038D3B13058003B533494553
:1009F000A5334945953313058002B93B1305000320
:100A0000A13B1305100E2D3B1305000FB1331D45FF
:100A1000A13329459133354581332D45353B1D455E
:100A2000253B130580020D3B1305300335331305B9
:100A3000E0031D331305600305335145313B514538
:100A4000213B13059002093B1305200331331305A5
:100A50001002FD314545ED31130580070D2E1305BC
:100A60009002F9396FF00FEF3707AC001307071446
:100A700098C39304000761BDEFF2EFE983C70182D9
:100A80004111B2843684937AF50F9379F60F13FAF5
:100A9000F50F13F9F60FB1EF1305A002553101451B
:100AA000653913852A021375F50F7D3113851402FC
:100AB00021851375F50F4D31138519021375F50F47
:100AC00061391305B002AD3901457931528569317B
:100AD0001305F4FF21851375F50FBD391305F9FFD3
:100AE0001375F50F95391305C002993941016FF05F
:100AF000CFE52A8B1305A0022EC6993113558B0022
:100B0000A139568591391385F4FF21851375F50FA9
:100B1000A1311385F9FF1375F50F3D391305B002A7
:100B20000531B24513D58500053913052A02137521
:100B3000F50F1D311305140221851375F50F2939A1
:100B40001305190271BFEFF20FDD9387C181B62340
:100B500092232A89814501450537B717014021476E
:100B60009359890098CB930400141379F90F130457
:100B7000C00A4E857D14752A42044A854180552A53
:100B80006DF8FD14C204C180FDF06FF00FDCEFF2D0
:100B90002FD741119306C00A130600148145014561
:100BA000E13DB747000003AC07BDB747000083AA8B
:100BB00047BDB747000083ABC7BC196AC169014490
:100BC000130ACAD3568B938909D82285EF10703C3B
:100BD000E285EF1000212A860965D285130585126A
:100BE0003939AA8D1305B4FAEF10B03AD685EF1053
:100BF000401FAA852A89EF10A0522A8D930400F67F
:100C0000930C000A2685EF10D038DA85EF10601DAE
:100C1000AA85EF10E050EA852AC6EF00F065DE8570
:100C2000EF104079EF1050432A86AE862AC02EC2BC
:100C3000892C024792472A86AE863A85BE85912442
:100C400032482AC02EC24285CA85EF10604DCA853F
:100C5000EF10004DCA85EF10A04CEF10F03F024797
:100C600092472A86AE863A85BE85C12DEF109049FF
:100C700093050000EF100042635005024E85850485
:100C8000EFF0BFAEE39094F905049307C00AE31EAA
:100C9000F4F241016FF08FCA6E85D5B7EFF24FC9FC
:100CA00005650111854511053714014002C002C2D6
:100CB00002C402C602C802CA02CC231E0100EFF021
:100CC000BF949307000261498D448A85130504800F
:100CD0007C804AC426C2EFF02FF8930700047C8082
:100CE0008A859147130504803EC4EFF0EFF6930721
:100CF00000088A85130504807C804AC426C2EFF070
:100D0000AFF5B70704013EC6B70700023ECAA147C8
:100D10003ECC6C009D4737350140FC8602C8EFF0A1
:100D20009F90854537350140EFF0DF9305616FF007
:100D30006FC2EFF2EFBF2A84894537350140EFF0EB
:100D40005F947DD9A28537350140EFF05F9305446C
:100D50009305000837350140EFF0BF92E30A85FEA6
:100D60006FF04FBFB707002083A7070837177A0037
:100D700013070720B3D7E70293F7F70F2382F18217
:100D80001307803EB387E7022391F1828280B7F791
:100D900000E0D8438146799BD8C303D7218233062C
:100DA000A70290CBD4CB98431367070198C398430D
:100DB0001367170298C3D843058B75DF9843799B57
:100DC00098C38280EFF2CFB62A8411650111854560
:100DD0001105EFF07F83930700207C8237150140D7
:100DE0008D473EC44C00E147130505803EC6EFF039
:100DF000AFE622C837440140B70708000C081305C6
:100E000004803ECC02CA231E0100EFF03F888545D6
:100E100013050480EFF05F9005616FF0AFB3EFF260
:100E20008FAFB7440140AE89328901449384048076
:100E3000634524014A856FF04FB193050004268570
:100E4000EFF07F8F7DD9B3878900838507002685E2
:100E50000504C205C181EFF09F8DD9BF1387818042
:100E60001C43938641833E95636BD500B7560020A3
:100E70009386068063E5A60008C33E858280FD5701
:100E8000EDBF39714AD813D945014ED652D456D246
:100E90009399C50006DE22DC26DA5AD05ECE13799D
:100EA000F97F2A8A93D9C90093DAF501630D090EF7
:100EB0009307F07F6306F9181354D5018E09B369BF
:100EC00034013704800033E489009314350013099A
:100ED00019C08149814B13D74601139AC600137775
:100EE000F77FB285135ACA0013DBF601630B0710B4
:100EF0009307F07F6303F7049357D6010E0A33EA92
:100F00004701130717C0B7078000B367FA009315AE
:100F100036003A99814833C76A01BD463A851308BD
:100F2000190063E8361717360000130626CB8A0926
:100F3000B29983A60900B2968286B367CA001309E4
:100F4000F97F6399071293E9290081458948E1B740
:100F500001479307F07F3704080081443204D20729
:100F600031807E075D8C598CA285F25062542685B3
:100F70004259D254B259225A925A025BF24B216121
:100F800082805A853E84AE84C68B8947638DFB0E72
:100F90008D47E38FFBFA85472A87639EFB3881479D
:100FA0000144814465BF33E4A90061C036C632C440
:100FB000638C092A4E85EF10902B2246B246AA87F1
:100FC000130755FF7544938487FF198CB3999900D3
:100FD00033548A0033643401B3149A0013D74601A2
:100FE0001309D0C0139AC6001377F77F3309F9406D
:100FF0008149814BB285135ACA0013DBF601E3190C
:1010000007EEB367CA00B1C7630F0A22528532C424
:10101000EF10F02522462A87930655FFF5479305E2
:1010200087FF958F331ABA00B357F600B3E747012D
:10103000B315B6003309E9401309D9C08148E1BDB1
:1010400033E4A90001ECA14981441309F07F894BE5
:1010500059B593E919008145854875BD4E84AA8428
:10106000B1491309F07F8D4BBDB5914981440149C8
:10107000854B95B593E93900D2878D4869BD89477D
:101080005685E397FBF02A879307F07F014481445C
:10109000F1B5C16E1386FEFF93D6040113DE050180
:1010A000F18CF18D338695023383B6029358060195
:1010B00033059E021A95AA98B382C60363F36800AB
:1010C000F692C16F1383FFFF33F5670093D30701D7
:1010D000B3F76800C207337366003E933306950288
:1010E00093D80801B387A602135F0601B384930265
:1010F000BE94FA94B38E760263F3F400FE9E416AC6
:101100009307FAFF935F0401B376F400B3F9F40098
:101110007D8EC1803384D502C209338FD401B29948
:10112000CE98B307DE02935E0401B385BF02AE978B
:10113000BE9E330EFE0363F3BE00529EC1679385CD
:10114000F7FF33F6BE006D8C4206229693DE0E0149
:10115000B305D502769E3385AF0213D40501B3865D
:10116000D302AA96A296B38FF30363F3A600BE9FA1
:1011700041657D15B3F7A600C2076D8DAA97B385AB
:101180005800B3B93501FA97B2953384370133B6B5
:10119000C500B30EC4013385CE0033343401B3B778
:1011A000E701C18F33BECE0113D406013336C5002B
:1011B0003E943366CE009394950032947E94B3E4CB
:1011C0006400260493567501B3349000DD819317B3
:1011D0009500CD8C558CDD8C9317740063DB070074
:1011E00093D7140085889316F401DD8CD58C058087
:1011F00042899307F93F6359F00893F6740081CE52
:1012000093F6F40011466388C60093864400B3B495
:1012100096002694B6849316740063D80600B70728
:1012200000FFFD177D8C930709409306E07F63CF95
:10123000F60E93D634009314D4012604D58C318055
:1012400093F7F77F21BB328532C4EF10500293062B
:101250005501F147130705022246E3D1D7DC61159A
:10126000B317A6008145F9B3EF10700013075501BD
:10127000F145930705022246B246E3D5E5D4611550
:101280003314AA00814499BB85469D8EB1E71309AA
:10129000E941B3972401B3D4D40033192401B337FF
:1012A000F000B3649900DD8C93F77400B356D4005A
:1012B00081CF93F7F40011466388C70093874400F9
:1012C000B3B49700A696BE849397860063D80704AC
:1012D00085470144814459B113068003E341D6CCCC
:1012E0007D46E356D6FA0556B307F640930500024D
:1012F0003356F4006387B6001309E943B31724019A
:10130000DD8CB3349000D18C93F67400014499CAFB
:1013100093F7F40011468146E392C7FA13949600BE
:101320003180F6068D80D58C81470DB99307F07F0B
:101330000144814425B142896DBD370710007D17F6
:1013400001113373B70093D84601758F935ED601B0
:1013500022CC26CA0E0393D445019357D5010E071C
:1013600006CE4AC84EC693F8F87F130EF07F33E7D7
:10137000EE0093F4F47F13D4F50133E36700131FF9
:101380003500FD82931E36006380C81993C616008F
:10139000B38514416305D4126351B018638B081AE6
:1013A000B70780005D8F6381C4599307800363C4CE
:1013B000B734FD4763C5B748930700028D8FB3D993
:1013C000BE003318F700B39EFE0033683801335770
:1013D000B700B339D001336838013303E340B309B0
:1013E0000F41B3373F013306F3409317860063D3B1
:1013F0000724370980007D1933792601630F092CF2
:101400004A85EF10C066130785FF93070002998F86
:10141000B3D7F9003316E900D18FB399E9006344DB
:10142000972A058F13061700FD4663C5C63A1307B2
:101430000002118FB3D6C9003398E9003397E70053
:10144000558F33380001B369070133D6C700814493
:1014500093F7790081CF93F6F90091476388F600FE
:101460009386490033B836014296B68993178600B1
:1014700063D6071C138714009307F07F0588630663
:10148000F720B70780FFFD17F18F1398D70193D985
:101490003900A60733683801B1831377F77F939635
:1014A000C7005207B1827E04D98EC18EF2406244D9
:1014B000D2444249B2494285B6850561828063566D
:1014C000B00A638A0812B70780005D8F6387C42D56
:1014D0009307800363C7B718FD4763D2B73C1388EF
:1014E00005FE93070002B3590701638AF5009307CD
:1014F0000004B385B7403317B700B3EEEE003338BE
:10150000D0013368380195A2B367D7019385148061
:1015100099E393C61600630AD404D1E193871400BB
:1015200093F7E77F6399071EB367E3013368D70139
:10153000639204166382073C631608421318350051
:101540009316D3011358380033E80601935733003C
:1015500019A2B367D7016385071A9387F5FF638BD9
:10156000073A638CC523BE8589B56399051C9386AC
:10157000140093F7E67FC1EFB367E301639004368D
:10158000638D0744B367D701639407460E051318AC
:10159000D3010D813368A800935733006DA8B3853C
:1015A000984063970420B367E301638D0730938706
:1015B000F5FF638907401305F07F6383A520BE858F
:1015C0009307800363C2B72AFD4763C8B73C9307FC
:1015D00000028D8F3318F3003356BF00B317FF009E
:1015E0003368C800B339F0003353B30033683801AF
:1015F00033076740B5ACB367D701638307109387A0
:10160000F5FF638F071E6380C52FBE85D1B5930795
:10161000F07F638BF606FA9E33B6EE01B307E30064
:10162000B2971398F70193DE1E00B369D80113D661
:101630001700B68493F77900E39F07E09317D6016C
:1016400013D839003368F800A6859357360013077E
:10165000F07F6380E506B207B18313F7F57F058855
:101660003DBD3367D7013338E000B309E801B3B7B4
:10167000E9013386670093178600E3DD07FA8504E6
:101680009307F07F639CF41805881307F07F814768
:10169000014831B5639107106301083C1318360007
:1016A0009317D701135838003368F80036849357DE
:1016B0003700B367F800E9DB01441307F07FB70791
:1016C00008000148E9BB370680FF7D167D8E93F741
:1016D0007900998CE39107D895B74E85EF102039A2
:1016E00013078501FD47E3D2E7D2130685FFB397C1
:1016F000C90081492DB33368D70133380001C5B122
:10170000131835009317D301135838003368F800C5
:10171000935733002DBFB309DF413309E34033361C
:101720003F013309C9409317890063CA072033E892
:101730002901E31508CC8147014431BFB3859840A6
:1017400063810414B70680009307F07F3363D300EE
:101750006381F8209307800363CCB722FD4763C9F8
:10176000B72C930700028D8F3318F300B356BF00D8
:10177000B317FF003368D800B339F0003353B30018
:10178000336838011A97B309D801B3B7D901338642
:10179000E700C684CDB5E31108F21318350093179E
:1017A000D301135838003368F8009357330011B74A
:1017B000370580009307F07F3363A300E392F8E0DE
:1017C0000E061318D7010D823368C80093573700EF
:1017D0003684C5B505179306000233D7E700630AC0
:1017E000D600930600043386C6403396C700B3E99B
:1017F000C90033383001B369E800014681441DBD9A
:10180000B309DF01B307E30033BFE9013386E70122
:10181000931786008544E3DF07E08944B70780FF1C
:10182000FD17F18F13D7190013F81900336807015A
:101830009399F701B3E9090113D6170011B9138879
:1018400005FE93070002B3590701638AF500930769
:101850000004B385B7403317B700B3EEEE0033385A
:10186000D00133683801A5BE3363E301333860002B
:10187000B3890E41B3B73E013306F740C6843684C0
:10188000ADB6B367E301638707189387F5FF638CF1
:10189000071C9306F07F638ED50ABE8565BD93074E
:1018A00000028D8FB3D9BE003318F700B39EFE003F
:1018B000336838013357B700B339D0013368380182
:1018C0003A9365B3131836009317D70113583800AD
:1018D00033E8070136849357370095BBBDCB336798
:1018E000D701E31B07DC0E051318D3010D81336804
:1018F000A8009357330075BBE30F08E213183600B6
:101900009317D701135838003368F800368493577B
:10191000370091B3B309DF41B307E340333F3F01E1
:101920003386E7418544D1B4131835009316D301AB
:101930001358380033E80601935733009DBBB38931
:10194000EE413306674033B93E0133092641368400
:1019500075B40E061318D7010D823368C80093576B
:10196000370081BBB309DF41B307E34033363F01A2
:101970003386C7409317860063D7070AB389EE41C1
:10198000B3076740B3BE3E013386D7413684C9B43E
:101990003363E30133386000FDB3138805FE93071A
:1019A0000002B3590301638AF50093070004B3856D
:1019B000B7403313B300336F6F003338E00133683F
:1019C00038017DB5B389EE41B3076740B3BE3E0130
:1019D0003386D7413684854409BC131836009317E3
:1019E000D701135838003368F80093573700A5B172
:1019F000B309DF01B307E30033BFE9013386E70131
:101A000093178600E3D807C2B70780FFFD177D8EC6
:101A100085440DB10E061318D7010D823368C80036
:101A2000935737002DB133E8C900E30608D019B148
:101A3000138805FE93070002B3590301638AF5007A
:101A400093070004B385B7403313B300336F6F00BF
:101A50003338E001336838013DB301441307F07FA8
:101A6000B70708002DBCB309DF01B307E300B3BE1D
:101A7000D9013386D70169BB4111370780007D1733
:101A800013D8750126C2935475013373A70093F4DC
:101A9000F40FB376B7004AC01378F80F1359F50165
:101AA00006C622C4FD819A8726854A86131E330006
:101AB000939E3600B3880441630AB90E6350100D3B
:101AC000630408149307F00F638BF414B707000442
:101AD000B3EEFE00ED4763C1172993070002B387F9
:101AE0001741B397FE00B3D81E01B337F000B3E738
:101AF000F800B307FE4013975700635E07183704DA
:101B000000047D147D8C2285EF0070766D15B3176F
:101B1000A4006348951A058D1304150013070002ED
:101B2000018F3397E7003337E000B3D78700D98FB1
:101B3000814413F7770019C713F7F7009146630341
:101B4000D700910713975700635B071485041307A9
:101B5000F00F4A866383E4169A07A58313F5F40F02
:101B6000B2402244A6079314750113D59700458D02
:101B70007E0692440249518D410182806399080A90
:101B8000138714001377E70F631707146390042279
:101B9000630D0E1EE3860EFCB307DE41139757005C
:101BA00063500722B387CE412E8961B7635C100B67
:101BB000630E08089307F00F6383F406B707000469
:101BC000B3EEFE00ED4763C9171F93070002B3870A
:101BD0001741B397FE00B3D81E01B337F000B3E747
:101BE000F800F297139757006357070A8504130705
:101BF000F00F6384E40CB706007E13D71700FD16C0
:101C0000858B758FD98F35B7638D0E08FD18B30797
:101C1000DE41E38208EE9307F00FE39DF4EA630DE3
:101C2000030801461305F00FB707400015BF33073F
:101C30009840EDE863020E147D17630807189307B8
:101C4000F00F6319F80E2E893683D1BF638B0E0413
:101C5000FD18B307DE01E38708F89307F00FE3935D
:101C6000F4F675BF63950808850413F7E40F631352
:101C7000071263170510630F0E14E3830EEEB3070C
:101C8000DE0113975700814463570700370700FCB4
:101C90007D17F98F854413F77700E31F07E813D307
:101CA00037009307F00FE38CF4F693179300A583A6
:101CB00013F5F40F4A866DB54A861305F00F814778
:101CC00045B5370700FC7D17F98F13F77700898C2E
:101CD000E31407E6E9B73304DE419317540063C306
:101CE000070CE31204E201460145814795BD330725
:101CF0009840ADC49307F00FE308F8F4B707000469
:101D0000336EFE00ED4763CCE70C93070002998F1A
:101D1000B317FE003357EE00B337F000D98FF697B4
:101D2000C284C9B59307F00FE30FF8F0B7070004BA
:101D3000336EFE00ED4763C3E70893060002998EF9
:101D4000B316DE00B357EE003337D000D98FB38718
:101D5000FE40C2842E8945B3854761BB630E0E06E3
:101D60007D17B307DE01C284E30E07E69307F00F89
:101D7000E31AF8F8368365B53683C2842E8915B721
:101D8000E3040EECE38D0EE869BD638D0E022E8632
:101D9000B687F9B39307F00FE381F4F2B307DE01DE
:101DA0008583D5BD3384CE412E89B1BBE31C0EFCA7
:101DB000E3890EE62E8949BD854725B5854741BF94
:101DC000E39B07EC0146814761BBB387CE41C284E8
:101DD0002E8915B3B68769B33683C284D9B58547D2
:101DE0003DBF3971935775014AD856D25ECE931ACA
:101DF00095001359F50106DE22DC26DA4ED652D4C0
:101E00005AD093F7F70F93DA9A00CA8B63820712BE
:101E10001307F00F6384E7128E0A37070004B3EA52
:101E2000EA00138A17F80144014B93D77501939484
:101E3000950093F7F70FA58093D9F501FDC7130718
:101E4000F00F6387E7028E04938717F837070004C3
:101E5000D98C330AFA408146558C172700001307A6
:101E6000E7DB0A043A941C4033493901BA97828768
:101E7000130A1AF0F9E88946558C17270000130752
:101E8000E7DD0A043A941C4033493901BA97828746
:101E900001491307F00FB707400013959700F25060
:101EA00062549317770125817E095D8D3365250185
:101EB000D2544259B259225A925A025BF24B2161D2
:101EC00082801307F00F8147C9BFA68ACE8B368B5D
:101ED0008947630BFB1A8D47E30CFBFA8547630ABE
:101EE000FB0A1307FA0713F91B006357E01293F775
:101EF0007A0099C793F7FA0091466383D700910A55
:101F000093974A0063D90700B70700F8FD17B3FAA3
:101F1000FA0013070A089307E00FE3C4E7FA939760
:101F20006A00A5831377F70F8DBFB9E48546A9B77B
:101F300063940A021144014A054BC5BD63990A0026
:101F40002144130AF00F094BCDB58D4631B731440A
:101F5000130AF00F0D4BD1BD56852EC6EF00303160
:101F60009307B5FFB39AFA009307A0F8338AA74006
:101F70000144014BB24555BD2685EF00502F130794
:101F8000B5FFB307AA00B394E400138A670781463C
:101F9000E1B513F91B000147814701B7416613956D
:101FA00054007D1693570501698E63FA9A0AB3D5DA
:101FB000FA027D1AD68601473388C502B3F6F602C7
:101FC000C206558F637B07012A979386F5FF6368E6
:101FD000A70A6376070BF9152A9733070741B3560B
:101FE000F7023377F702B38AC6029317070163FB40
:101FF0005701AA971387F6FF63E1A70863FF570706
:10200000F916AA97C205B38A5741D58DB33A500144
:10201000B3EA5501CA8BF1B58546998E11C76D4655
:1020200001478147E34BD6E6130AEA09339A4A018E
:10203000B3D7DA00B33A4001B3E7570113F777009B
:1020400019C713F7F70091466303D7009107139759
:102050005700634807029A07A58301473DBD93D601
:102060001A00B3D5F6021397FA0141833388C502EB
:10207000B1B7CE8B368B814AA1BDBA8661B7B68522
:10208000A9BF0547814711BD13F91B001307F00FC6
:10209000814721B593567501B7078000FD1713D608
:1020A000750193F6F60F1308F00FB3F8A700135756
:1020B000F501ED8F1376F60FFD8163870603630943
:1020C000060185EA11EA89EB0145639B08008280DD
:1020D0000945F5FFE5DA31A8638C08026300B7040F
:1020E000054575D77D5582800945639808026304CC
:1020F000D60211E2F5D7E315B7FEE343D6FE63C778
:10210000C600E3EF17FD0145E3F3F8FC19E3D9BF7F
:10211000F1D905458280E5D3828082808146C5B7AA
:10212000797122D4135475014ECE52CC9319950077
:1021300006D626D24AD056CA5AC81374F40F93D979
:102140009900135AF50169C49307F00F6308F40E60
:102150009397390037070004B3E9E700130414F834
:102160008144014B13D77501939A95001377F70FAC
:1021700093DA9A0013D9F50145CF9307F00F630C5A
:10218000F7028E0A130717F8B7070004B3EAFA003C
:102190003A94014633452A01BD47AA8693051400A7
:1021A00063E2971017270000130747AF8A04BA9419
:1021B0009C40BA9782871304F40F63980A0C93E447
:1021C00024000946C1BF01451307F00FB7074000BF
:1021D000B2502254A6075E07A5837E05D98F92547C
:1021E0000259F249624AD24A424B5D8D4561828072
:1021F000CA86D689328B89476301FB0A8D47E3047F
:10220000FBFC854736856312FB1A01478147C9B736
:10221000639E090413D77501939A95001377F70FFE
:1022200091440144054B93DA9A0013D9F50131F733
:10223000639D0A0093E414000546A9BF6393090255
:10224000A1441304F00F094B31BF5685EF00300253
:102250009307B5FF098CB39AFA001304A4F801465A
:1022600015BFB1441304F00F0D4BEDBD4E852EC6C6
:10227000EF00E07F9307B5FF1304A0F8B399F900CE
:10228000098C8144014BB245F1BD93E434000D4605
:1022900011B78947D286E313FBF636851307F00F93
:1022A00081473DB741639306F3FF13D6090193D8E5
:1022B0000A01B3F7D900B3FADA0033885703B389B8
:1022C000F80213570801B30A5603D6994E973306FE
:1022D0001603637357011A96C167FD17B376F700AB
:1022E0003378F800C206C2969399660093570701A7
:1022F000B3393001E982B2979A07B3E6D900B3E95E
:10230000D7009397490063D9070013D7190093F7B3
:102310001900B369F7002E841307F4076350E00433
:1023200093F7790099C793F7F90091466383D70033
:1023300091099397490063D90700B70700F8FD1783
:10234000B3F9F900130704089307E00F63CBE70420
:1023500093976900A5831377F70F9DBD8547B386D3
:10236000E74011C76D4601478147E343D6E61307AF
:10237000E4093397E9003337E000B3D7D900D98FA8
:1023800013F7770019C713F7F70091466303D700D7
:10239000910713975700634C07009A07A5830147DD
:1023A00005BD1307F00F814725B52E84B5B7054746
:1023B000814739BD3707800041117D17935675015C
:1023C00013D87501B377A70093F6F60F935EF50166
:1023D0003376B70026C24AC01378F80F06C622C467
:1023E0001303F00F3E8E3689F684139F3700FD816C
:1023F00013153600B38806416302681093C51500B3
:10240000638CBE106354100D631008106304051E26
:10241000FD18B307AF40638608029307F00F638887
:10242000F616ED4763C71729130700023307174154
:102430003317E500B35715013337E000D98FB307E1
:10244000FF40139757006351071A370400047D14A7
:102450007D8C2285292D6D15B317A400634E251B95
:10246000330525411304150013070002018F33972C
:10247000E7003337E000B3D78700D98F014913F75E
:10248000770019C713F7F70091466303D700910748
:1024900013975700635E0714930619001307F00F94
:1024A00093FE14006386E6169A07A58393F6F60F4B
:1024B000A607B240224413D59700DE069397FE018B
:1024C000558D924402495D8D410182806392080AD4
:1024D000138716001377E70F631B07146394062214
:1024E00063020F2071D5B307AF40139757006355B0
:1024F0000722B307E5410149AE8451B7E30005F077
:10250000638ABE0AE35410FD9307F00F6381F60857
:10251000B70700045D8D31B7635E100963010808D9
:102520009307F00F6385F606B70700045D8DED474E
:1025300063C0171F13070002330717413317E50065
:10254000B35715013337E000D98FFA971397570027
:10255000635C070805091307F00F630BE90AB70668
:10256000007E13D71700FD16858B758FD98F01BF9D
:102570003307D84063950610630D0F147D1763036E
:10258000071A9307F00F6314F810AE84328E630FAE
:102590000E06814E9306F00FB707400011BF39C9F0
:1025A000FD18B307AF00E38308FA9307F00FE39039
:1025B000F6F8F1BF63990808138916001377E90F3D
:1025C00063160712639B061063030F16E30205EE02
:1025D000B307AF0013975700014963570700370748
:1025E00000FC7D17F98F054913F77700E31C07E816
:1025F00013DE37009307F00FE30BF9F893179E00F3
:10260000A5839376F90F93FE14005DB593FE140035
:102610009306F00F814769BD370700FC7D17F98FDE
:1026200013F777003309A940E31E07E4D1B7330459
:10263000AF409317540063C3070CE31C04E0814EC2
:1026400081468147B5B53307D840B5C69307F00F2B
:10265000E30EF8F2B7070004336FFF00ED4763CDD8
:10266000E70C93070002998FB317FF003357EF0071
:10267000B337F0005D8FB307A7004289C1BD930750
:10268000F00FE304F8F0B7070004336FFF00ED47E5
:1026900063C2E70893070002998FB317FF0033570F
:1026A000EF00B337F000D98FB307F5404289AE840D
:1026B00049BB854769B3630E0F067D17B307AF00AB
:1026C0004289E30507E89307F00FE319F8F8328E23
:1026D0007DBD328E4289AE8431BFE3090FEAE30843
:1026E00005EA45BD0DCDAE8EB287D9B39307F00F85
:1026F000E300F9F2B307AF008583FDB53304E5418C
:10270000AE8481BBE31D0FFCE30505E8AE84BDBDCF
:10271000854725BD854749BF0149E39707EC814EB1
:10272000814779B3B307E5414289AE8419BBB287CB
:1027300041B3328E42897DBD054735BF13577501C0
:10274000370680009307F6FF1377F70F9305E0072E
:10275000B3F6A7009357F501014563F4E50099C36B
:10276000828082809307E0097D55E3EBE7FE9305C5
:102770005009B3E7C60063D7E5001307A7F6339502
:10278000E7008280130560093307E54033D5E70091
:102790008280411106C622C426C20DCD9357F54151
:1027A00033C4A7001D8CAA842285D1249307E00995
:1027B0003387A74093076009FD8063CCE702A146F9
:1027C0009377F70F63D5A60061153314A400260490
:1027D000258021A08144814701442604135594009B
:1027E000B2402244DE07FE045D8D458D92444101D6
:1027F00082809307900963DDE7009307B501954652
:10280000B317F400898E3354D400B337F0005D8CD5
:10281000954763D6A7009307B5FF3314F400B706B6
:1028200000FCFD16937774003376D40085C393774C
:10283000F4009145638CB70011069317560063D7D7
:1028400007009307F009758E3387A74013146600BD
:1028500025809377F70F51B7135775011377F70F4B
:1028600041119307170022C426C21314950006C60F
:1028700093F7E70F25809354F50185C793573400EC
:10288000130707387604B2075207B1831395F40192
:10289000D98FC98FB240228522449244BE8541011E
:1028A000828005EB39C42285D922A94763C6A704D3
:1028B0002D47098F930755013357E4003314F40073
:1028C0009317C70013079038098FB1831377F77FE9
:1028D0005DBF01CC13573400B7070800D98FB2078A
:1028E0007604B1831307F07F79BF1307F07F814728
:1028F00059BF0147814741BF130755FF3317E40014
:1029000001447DBF93D645019397C50093F6F67FAA
:10291000B183138616008E071357D5011376E67F11
:10292000FD815D8F9318350035CE138806C8930757
:10293000E00F63DD07018147139597009306F00FC1
:10294000DE062581FE05558D4D8D82806355000B79
:10295000931765000E07B337F000D98F93D8D801CD
:10296000B3E7170113F777006301071013F7F700B8
:1029700091466303D7009107370700047D8F75C721
:10298000130718001306F00F9376F70FE305C7FA45
:102990009A07A58313959700DE062581FE05558DC0
:1029A0004D8D8280B367170199EE85CF95479A07C1
:1029B000A5831395970093F6F60FDE062581FE0595
:1029C000558D4D8D8280A5DBB7074000139597008C
:1029D0009306F00FDE0681452581FE05558D4D8D50
:1029E00082808147139597008146DE062581FE058A
:1029F000558D4D8D8280A5576348F804F9473706F9
:102A00008000B38707417D45598E6351F50479579E
:102A100033070741130500023357E6006388A70018
:102A2000938626CAB316D600B3E8D800B337100190
:102A3000D98F13F77700014815FB13975700854688
:102A4000E34807F48146A5B781468DB7938626C82B
:102A50003397D8003337E000B316D600B3D8F80068
:102A6000B367D700B3E7F800E9B7C28689B7C16793
:102A7000637CF5029307F00F1307000263EBA700D6
:102A80009717000093878725AA9788233305A740C7
:102A9000828021819717000093874724AA97882373
:102AA00061473305A7408280B7070001636DF500D9
:102AB00061819717000093876722AA97882321478F
:102AC0003305A74082804181971700009387072133
:102AD000AA97882341473305A740828039713EDA9F
:102AE0002ED232D436D63AD842DC46DE9387C18025
:102AF00022CC804326CA06CEAA8409C41C4C99E382
:102B00002285F9200C4454102686228536C60129D8
:102B1000F2406244D24421618280411122C406C63F
:102B20002A844EA572A52320050023220500232414
:102B300005002322050623280500232A0500232C4F
:102B40000500214681451305C505EFD06FE19717B4
:102B50000000938707A35CD097170000938727A5F1
:102B60001CD497170000938707A95CD4971700001F
:102B7000938767AB00D01CD8B240224441018280C9
:102B8000971500009385E5DEA9A2411126C2130620
:102B900080069384F5FFB384C4024AC02E8922C400
:102BA00006C6938544073D2C2A8401CD23200500C9
:102BB00023222501310508C4138684068145EFD000
:102BC0002FDA2285B2402244924402494101828098
:102BD0001C4DADE3411106C622C497070000938740
:102BE00067FA1CD5938701819C432324050423267F
:102BF0000504232805046314F50085471CCD2A84A9
:102C00001D2848C02285052808C422852D2048C4D7
:102C1000484001469145113708440546A545F53D14
:102C200048440946C945D53D85471CCCB24022449D
:102C300041018280828041119387018126C28443B1
:102C40004AC006C69C4C22C42A8999E32685493786
:102C5000938484048044DC40FD1763D607009C40C5
:102C6000B9CF8440C5BF0317C40039E7C1778507D2
:102C7000232204062320040023220400232404002A
:102C80005CC423280400232A0400232C04002146CA
:102C900081451305C405EFD0AFCC232A0402232CB1
:102CA000040223240404232604042285B24022447F
:102CB00092440249410182801304840671BF914508
:102CC0004A85E13588C051FDB1472320F900014410
:102CD000E9BF797122D44AD052CC56CA5AC85EC6CE
:102CE00006D626D24ECE2A8AAE8A1304850401491E
:102CF000054BFD5B09ECB25022544A8592540259AF
:102D0000F249624AD24A424BB24B45618280044446
:102D100083294400FD1963D409000040E1BFDE248B
:102D2000637BFB008397E40063877701A685528568
:102D3000829A3369A90093848406E9BFDDC183A721
:102D4000C5FF411122C406C626C21384C5FF63D342
:102D500007003E94AA84EF00905A938781829C4397
:102D600081EF2322040023A481822244B2402685DD
:102D7000924441016F00D058637EF4001440330741
:102D8000D4006396E7009843DC43369718C05CC0D4
:102D9000D9BFBA87D84319C3E37DE4FE9443338691
:102DA000D700631F86001040B29694C33386D700C5
:102DB000E31DC7FA10435843B29694C3D8C375B7FE
:102DC0006375C400B1479CC04DB71040B306C40042
:102DD0006316D70014435843B29614C058C0C0C3FA
:102DE00069B78280011126CA93843500F19806CE16
:102DF00022CC4AC84EC6A104B14763F3F404B144DF
:102E000063E2B4042A89EF00904F9387818298434C
:102E10003A8439E09387C1829C4391E781454A8592
:102E2000152F23A6A182A6854A852D27FD59631952
:102E30003507B1472320F9004A85EF00704C29A0DF
:102E4000E3D004FCB1471CC10145F2406244D244C6
:102E50004249B249056182801C40858F63CF0702D9
:102E6000AD4663F6F6001CC03E9404C031A05C4041
:102E70006313870223A4F1824A85EF00704813058B
:102E8000B4009307440061993307F5405DDF3A943D
:102E9000898F1CC05DBF5CC3C5B72287404095BF0A
:102EA000130435007198E30285FCB305A4404A85FC
:102EB0005525E31C35FBB5BF1C46FD171CC663D961
:102EC0000700184E63C5E700A9476393F500A9AF53
:102ED0001C422E851387170018C28CA38280011113
:102EE00022CC26CA4AC84EC652C406CE2A89AE890A
:102EF0003284B304D6007D5A63149400014501A8BE
:102F00000C204E864A854D3F0504E31745FFF240ED
:102F10006244D2444249B249224A056182803571F5
:102F200022CD26CB4AC94EC706CF52C556C35AC179
:102F3000DEDEE2DCE6DAAA89AE843289368409C5AF
:102F40001C4D99E3EFF0DFC897170000938707EB5C
:102F50006398F40C83A44900DE24A18BE5C79C4848
:102F6000F5C393070002A304F1029307000302D202
:102F70002305F10222C6930B5002971A0000938A90
:102F8000EAEB054C294B4A841C2099C3639E770DBC
:102F9000B30C2441638D0C00E6864A86A6854E85D7
:102FA0003D3FFD576301F51E9256E69636D21C2032
:102FB000638B071CFD571309140002C802CE3ECADA
:102FC00002CCA309010482D4834509001546568525
:102FD000EF00703113041900C24749E913F70701E4
:102FE00009C713070002A309E10413F7870009C703
:102FF0001307B002A309E104834609001307A002E6
:10300000638EE606F2474A848146254618209305DA
:103010001400130707FD6376E60AADCA3ECEBDA0D5
:1030200097170000938787DF6395F40083A48900D6
:1030300025B797170000938767DAE39FF4F083A41E
:10304000C90019BFA6854E85F12501DD7D55FA40E1
:103050006A44DA444A49BA492A4A9A4A0A4BF65B10
:10306000665CD65C0D618280050439BF330555412D
:103070003315AC00C98F3EC82289B9B732479306D1
:103080004700184336C6634707023ACE1820930715
:10309000E002631DF70418309307A002631BF702D8
:1030A000B2470904138747009C433AC663C107022D
:1030B0003ECA2DA83307E04093E727003ACE3EC82A
:1030C000F1B7B387670385462E84BA9781B7FD575A
:1030D000C5B7050402CA81468147254618209305D5
:1030E0001400130707FD6376E606F9F20C200D467F
:1030F00017150000130505D5EF00F01E11CD971729
:103100000000938727D41D8D93070004B397A70071
:10311000424505045D8D2AC80C201946171500008C
:10312000130585D2130914002304B102EF00B01B6C
:1031300035C197D7FFFF9387E7EC95E74247B24742
:103140001377071009CF91073EC69257D2973ED208
:103150001DBDB387670385462E84BA9741B79D0787
:10316000E19BA107D5B7780097060000938666D744
:1031700026860C084E8597000000E7000000FD57EA
:103180002A8AE314F5FCDE2493F70704E39007ECA6
:10319000125575BD780097060000938686D4268662
:1031A0000C084E85012AE1BF797156CA9C49BA8A3A
:1031B000984522D426D24ECE52CC06D64AD05AC8F2
:1031C0005EC6AA892E84B284368A63D3E700BA87A2
:1031D0009CC00347340419C385079CC01C4093F767
:1031E000070281C79C4089079CC00329040013790A
:1031F0006900631A0900130B9401FD5B5C4498405D
:10320000998F634CF9041C408346340493F70702FA
:10321000B336D000A5EB13063404D2854E85829ACE
:10322000FD576303F5041C4011469840998B5444A4
:1032300081446397C700B384E64063D304008144AC
:103240001C4418486354F700998FBE9401496904DF
:103250007D5B63982405014509A885465A86D28579
:103260004E85829A631E75017D55B2502254925448
:103270000259F249624AD24A424BB24B45618280BE
:103280000509ADBF3307D40013060003A301C7042B
:103290000347540493871600A2978906A381E70485
:1032A0009DBF85462286D2854E85829AE30E65FBB8
:1032B000050945B7797122D426D24AD04ECE06D61A
:1032C00052CC56CA5AC8B689942D930790063289B3
:1032D000AA842E8413863504638DF60263E2D70632
:1032E000930780056385F61863EDD700638D06208C
:1032F00093073004638EF60A930A24042301D4044E
:10330000C9A0930730066385F60A93074006E39544
:10331000F6FE1C40084393F6070893054500C5C612
:103320001C410CC363D807001307D002B307F04059
:10333000A301E40497160000938686B1294765A887
:10334000930700076381F61663E5D7029307E0064B
:103350006388F6189307F006E390F6FA0C401C43D6
:1033600013F80508138547006307080608C39C4344
:1033700085A893075007E383F6FE930780076388C9
:10338000F61293073007E399F6F61C43D0418145C6
:103390009386470014C383AA07005685A92701C551
:1033A0003305554148C05C401CC8A301040461A812
:1033B0001C43930A2404938647009C4314C32301AF
:1033C000F4048547D5B793F607041C410CC3B9DA5A
:1033D000C207C18781BF93F5050408C3C9D99E23DD
:1033E0001307F0066386E60E97160000938646A63E
:1033F0002947A30104044C400CC463C505000840E0
:103400006D9908C099E3B28A89CDB28AB3F5E70213
:10341000FD1AB6958C212380BA00B3D5E70263FF6D
:10342000E70AA147631EF7001C40858B91CB5840EB
:103430001C4863C7E70093070003A38FFAFEFD1A39
:103440003306564110C84E87CA867000A28526856D
:10345000A13B7D5A631D450B7D55B25022549254B9
:103460000259F249624AD24A424B45618280A382A4
:10347000D504971600009386A69D0C40084313F8C8
:1034800005081C411105630D080208C313F7150058
:1034900001C793E505020CC04147A1FF0C4093F51D
:1034A000F5FD0CC0B9B79C4193E707029CC1930797
:1034B0008007A302F404971600009386A69A75BFAE
:1034C00013F8050408C3E30308FCC207C1837DBFEA
:1034D000971600009386C697214721BFAE873DB758
:1034E00094411C43CC4913F8060813854700630632
:1034F000080008C39C438CC339A008C393F6060494
:103500009C43F5DA8EA323280400B28A2DBF144809
:103510005686CA8526858299E30045F51C40898B2D
:103520008DE7B2474844E35AF5F23E853DB78546FC
:103530005686CA8526858299E30065F3050A5C44B0
:103540003247998FE345FAFEE9BF014A930A940195
:103550007D5BF5B7411122C42A842E8523A8018200
:1035600006C6EFD0BF8FFD576317F5009387018321
:103570009C4391C31CC0B24022444101828041114E
:1035800022C42E848395E50006C6A52B6349050059
:103590007C48AA977CC8B2402244410182805E24C4
:1035A0007D777D17F98F5EA4FDB7DE25011122CC52
:1035B00026CA4AC84EC606CE93F70710AA842E84A0
:1035C0003289B68991C78395E5008946014619215C
:1035D0005E247D777D17F98F5EA48315E400624435
:1035E000F240CE864A86B24942492685D2440561D8
:1035F000DDA8411122C42E848395E50006C6D92E8C
:10360000FD575A24631AF500FD77FD17F98F5EA464
:10361000B2402244410182808567D98F5EA468C888
:10362000C5BF8395E500FDA2011122CC26CA4AC878
:1036300006CE4EC6AA842E89328409C51C4D99E354
:10364000EFF00FD9970700009387477B6317F406C5
:10365000C0401C4C1CC45E24A18BC1C31C48B5CF08
:103660001C4808409379F90F1379F90F1D8D5C48B8
:103670006346F500A2852685DD2C25E51C4405055D
:10368000FD171CC41C401387170018C02380370186
:103690005C486388A7005E24858B81CBA9476316AD
:1036A000F900A2852685E1240DEDF24062444A85A9
:1036B000D2444249B249056182809707000093874E
:1036C000E7756314F400804469B797070000938797
:1036D000E770E310F4F8C044ADBFA28526851D282D
:1036E00041D17D59D9B7411122C42A842E85B28592
:1036F000368623A8018206C6EFD06FF2FD57631706
:10370000F500938701839C4391C31CC0B2402244BF
:103710004101828041119387C18026C2844322C423
:103720004AC006C62A892E8491C49C4C81E726850E
:10373000EFF00FCA970700009387476C631BF402F2
:10374000C0400317C40093170701C18393F6870095
:10375000B5EA93F6070195EEA5472320F900136714
:1037600007045AA47D55B2402244924402494101C3
:103770008280970700009387676A6314F40080448F
:10378000C9B79707000093876765E31CF4FAC04444
:103790004DBF918B85C74C5891C9930744046385ED
:1037A000F5004A85EFF08FD9232A04025E242322F4
:1037B000040093F7B7FD5EA41C481CC05E2493E789
:1037C00087005EA41C4899EB5E241307002093F742
:1037D00007286385E700A2854A85B52C5E2413F788
:1037E00017001DC35C4823240400B307F0401CCC21
:1037F0001C480145ADFB8317C40013F7070825D704
:1038000093E707045EA4B9BF898B014791E3584849
:1038100018C4F9BF411122C42A842E8523A801822D
:1038200006C6B92EFD576317F500938701839C43A5
:1038300091C31CC0B240224441018280DE250111A7
:1038400022CC26CA06CE4AC84EC613F78700AA84E1
:103850002E8461EFD841634DE000B841634AE00037
:103860000145F2406244D2444249B2490561828036
:1038700058547DD703A904009396370123A0040070
:1038800063DC060670485E24918B99C75C401D8EF0
:103890005C5899C33C401D8E5C540C508146268573
:1038A0008297FD575A24631DF5009440F54763E95C
:1038B000D706B70740208507B3D7D700858BADC3A0
:1038C0001C48232204001CC09317370163D807004B
:1038D000FD576314F5009C4091E368C84C5823A041
:1038E0002401BDDD930744046385F5002685EFF0D0
:1038F000EFC4232A0402ADB70C5001468546268545
:103900000297FD572A86E310F5F89C40ADDF754716
:103910006385E70059476393E70423A0240189B72F
:10392000136707045AA47D552DBF83A90501E389B8
:1039300009F203A905008D8B23A035013309394114
:10394000014791E3D84918C4E35C20F11C540C50A2
:10395000CA864E86268582976347A0005E2493E739
:1039600007045EA4C9B7AA993309A940F1BF9C49CD
:10397000A5C3011122CC06CE2A8419C51C4D89E7A6
:103980002EC6EFF0EFA4B2459707000093870747D4
:10399000639BF5004C408397C50095C72285624420
:1039A000F240056161BD9707000093872747639444
:1039B000F5000C44CDB79707000093872742E39C9E
:1039C000F5FC4C44C9BFF240624401450561828068
:1039D00001458280411122C42A842E85B285368613
:1039E00023A8018206C67D2AFD576317F500938739
:1039F00001839C4391C31CC0B24022444101828098
:103A00001971A6DAAE848395E500A2DC86DE3284E5
:103A100063DB0500DE2423A0060093F707089DE37F
:103A20009307004015A0300836C61122B246E34382
:103A300005FE7247BD67F98F7977BA9793B717007C
:103A40009CC2F9BF930700041CC0F6506654D654BC
:103A5000014509618280DE25011122CC06CE26CAED
:103A60004AC8898B2E8489CF930774041CC01CC854
:103A700085475CC8F2406244D24442490561828075
:103A800074003000AA84AD3FA2452A892685EFF054
:103A90006FB519E98317C40013F7072061FFF19B85
:103AA00093E727005EA4C9B797F7FFFF9387870DB9
:103AB0009CD45E2408C008C893E707085EA4A24708
:103AC0005CC8B24799CB8315E4002685712011C5E7
:103AD0005E24F19B93E717005EA45E243369F9002E
:103AE0002316240141BF93F5F50F2A966314C500F0
:103AF000014582801C21E38EB7FE0505C5BF82808B
:103B00008280411122C42A842E85B285368623A85C
:103B1000018206C67128FD576317F500938701835C
:103B20009C4391C31CC0B240224441018280411198
:103B300022C42A842E85B28523A8018206C6B92014
:103B4000FD576317F500938701839C4391C31CC005
:103B5000B240224441018280411122C42A842E8530
:103B600023A8018206C60D28FD576317F500938729
:103B700001839C4391C31CC0B24022444101828016
:103B80009307800523A8F1827D55828093078005E5
:103B900023A8F1827D5582809307800523A8F182B6
:103BA000014582809307800523A8F1827D5582809C
:103BB0009307800523A8F1827D5582805379737421
:103BC000656D436C6B3A25640D0A00000000803F70
:103BD00000002B4300002042BAD4FFFFACD3FFFF0C
:103BE000ACD3FFFFAAD3FFFFB2D3FFFFB2D3FFFFD7
:103BF00078D3FFFFAAD3FFFFB2D3FFFF78D3FFFF35
:103C0000B2D3FFFFAAD3FFFFA6D4FFFFA6D4FFFFC6
:103C1000A6D4FFFF78D3FFFF84E3FFFFAAE2FFFFF4
:103C20007EE3FFFFB2E2FFFF7EE3FFFF78E2FFFFEC
:103C30007EE3FFFFB2E2FFFFAAE2FFFFAAE2FFFF7F
:103C400078E2FFFFB2E2FFFFB8E2FFFFB8E2FFFF5A
:103C5000B8E2FFFF78E2FFFF6AE2FFFF6AE2FFFFE0
:103C60003EE3FFFF1AE4FFFF3EE3FFFF38E2FFFF02
:103C70003EE3FFFF1AE4FFFF6AE2FFFF6AE2FFFF95
:103C800038E2FFFF1AE4FFFF78E2FFFF78E2FFFF70
:103C900078E2FFFF38E2FFFF0CE6FFFF5AE5FFFF87
:103CA0005AE5FFFF58E5FFFF5EE5FFFF5EE5FFFF1A
:103CB0002EE5FFFF58E5FFFF5EE5FFFF2EE5FFFF66
:103CC0005EE5FFFF58E5FFFFFAE5FFFFFAE5FFFFBE
:103CD000FAE5FFFF2EE5FFFF0001020203030303E5
:103CE000040404040404040405050505050505058C
:103CF000050505050505050506060606060606066C
:103D00000606060606060606060606060606060653
:103D1000060606060606060607070707070707073B
:103D20000707070707070707070707070707070723
:103D30000707070707070707070707070707070713
:103D40000707070707070707070707070707070703
:103D500007070707070707070808080808080808EB
:103D600008080808080808080808080808080808D3
:103D700008080808080808080808080808080808C3
:103D800008080808080808080808080808080808B3
:103D900008080808080808080808080808080808A3
:103DA0000808080808080808080808080808080893
:103DB0000808080808080808080808080808080883
:103DC0000808080808080808080808080808080873
:103DD00008080808080808080000000000000000A3
:103DE00000000000000000000000000000000000D3
:103DF00000000000000000000000000000000000C3
:103E000000000000000000000000000000000000B2
:103E100000000000000000000000000000000000A2
:103E20000000000000000000000000000000000092
:103E30000000000000000000232D302B20000000B7
:103E4000686C4C0065666745464700003031323388
:103E50003435363738394142434445460000000086
:103E600030313233343536373839616263646566F0
:043E7000000000004E
:103E74000000000000000000010203040607080916
:103E840000000000010203040102030406070809FC
:103E940000000000F83D0000183E0000D83D00007E
:103EA400000000000000000000000000000000000E
:103EB40000000000000000000000000000000000FE
:103EC40000000000000000000000000000000000EE
:103ED40000000000000000000000000000000000DE
:103EE40000000000000000000000000000000000CE
:103EF4000044950802040608B400002020000020B5
:083F0400200000200000000075
:00000001FF
